:020000041000EA
:1000000000B5324B212058609868022188439860DF
:10001000D860186158612E4B002199600421596104
:100020000121F02299502B49196001219960352056
:1000300000F044F80222904214D00621196600F024
:1000400034F8196E01211966002018661A6600F04E
:100050002CF8196E196E196E052000F02FF8012189
:100060000842F9D1002199601B49196000215960AB
:100070001A491B48016001219960EB211966A021F2
:10008000196600F012F800219960164914480160C1
:100090000121996001BC002800D000471248134993
:1000A000086003C880F30888084703B5996A0420EC
:1000B0000142FBD001200142F8D103BD02B5186610
:1000C0001866FFF7F2FF186E186E02BD00000240BE
:1000D000000000180000070000035F00212200005C
:1000E000F4000018222000A00001001008ED00E03C
:1000F000000000000000000000000000070B8FD58A
:1001000000040420C50200103D630010C702001067
:10011000C7020010C7020010C7020010C70200107B
:10012000C7020010C7020010C7020010C70200106B
:10013000C7020010C7020010C7020010C70200105B
:10014000556200103162001009620010E161001078
:10015000C702001065630010C702001045E70010D9
:10016000C7020010C7020010C7020010AD620010E5
:1001700079620010C7020010C70200101D63001052
:10018000E1620010C7020010C7020010C702001091
:10019000C7020010C7020010C7020010C7020010FB
:1001A00011660010C7020010C7020010C70200103D
:1001B000C7020010C7020010C7020010C7020010DB
:1001C00072B62C4880F308882B4880F309880220F7
:1001D00080F31488BFF36F8F28482949086005F021
:1001E000B4FD07F07CF827482749224A914202DAF9
:1001F00008600431FAE725491F4A914202DA086093
:100200000431FAE72249234A234B14469A4204DA7E
:100210000868106004310432F8E719490C601F497E
:100220001F4A204B9A4204DA0868106004310432F5
:10023000F8E700201C491D4A914202DA08600431A7
:10024000FAE707F033F807F04BF8194C194DAC42B8
:1002500003DA216888470434F9E709F0C1FA164C3B
:10026000164DAC4203DA216888470434F9E7144993
:100270000847000000040420000C042000010010C6
:1002800008ED00E0555555550000042000040420F9
:100290000001001000010010C0010010EC0301106B
:1002A00000000020980E0020980E00205C3C0020EA
:1002B000C0010010C0010010C0010010C0010010FA
:1002C000DD7200107CE700F000F8FEE7F0B5444670
:1002D0004D4656465F46F0B46B46CB60C3689D46BC
:1002E000F0BCA046A946B246BB46F0BD05F04AFFA9
:1002F00062B6281CA047002006F03EFDFEE706F08F
:1003000095FD024A024B1360FEE7C04604ED00E093
:10031000000000807047C0469E2110B5C905041C2E
:1003200000F072FC002803D1201C00F0DDFB10BDA2
:100330009E21201CC90500F035FA00F0D5FB802372
:100340001B069C466044F2E7F0B54F464646D6464B
:1003500044024500C0B5640A0F1C2D0EC60F002DC7
:100360004FD0FF2D55D08023E400DB041C43002335
:1003700099469A467F3D7B0278005B0A9846000EBC
:10038000FF0F002831D0FF2810D08022DB00D204DC
:100390001A43904600217F382D1A4B4632000B43FA
:1003A00071489B00C3587A40D2B29F46FF3D002B54
:1003B00054D102234946194332000B007A40033BD3
:1003C000D2B20C2B04D869499B00CB589F463A0007
:1003D000002000246402C305600AD20718431043BA
:1003E000E0BCBA46B146A846F0BD002B2BD1012394
:1003F0004946320019438B005D497A40CB58D2B24E
:100400009F46002C13D104239946033B00259A46AE
:10041000B1E7002C05D108239946063BFF259A46F3
:10042000A9E70C239946093BFF259A46A3E720003C
:1004300000F0F4FB7625431F9C4000236D422D1AEB
:1004400099469A4697E7180000F0E8FB4246431F9A
:100450009A402D189046763500219EE703219CE7AF
:1004600017003A00FF200024B4E780240022E403B0
:10047000FF20AFE732005346022BF1D0032B6CD0A4
:10048000012BA5D028007F30002846DD630704D06B
:100490000F232340042B00D00434230103D528006C
:1004A000344B80301C40FE28DCDCA401640AC0B25E
:1004B00090E78023DB031C4227D042461A4224D116
:1004C00044461C436402640A3A00FF2082E73A0073
:1004D00044468A46CFE7414663014C01A34235D2E8
:1004E0001B200021013D01271E0049005B00002E5A
:1004F00001DB9C4201D81B1B394301380028F3D192
:100500001C00631E9C410C43BCE78023DB031C439F
:100510006402640A3200FF205CE70123181A1B28DA
:1005200000DD55E79E352300AC40C340611E8C4181
:100530001C43630704D00F232340042B00D0043452
:10054000630107D4A401640A002043E71B1B1A209F
:100550000121C8E7012000243CE78023DB031C4382
:100560006402640AFF2035E760ED0010A0ED001082
:10057000D4ED0010FFFFFFF7F0B54F464646D646D4
:1005800044024500C0B58846640A2D0EC70F002DF1
:1005900049D0FF2D4FD08023E400DB041C4300230F
:1005A00099469A467F3D434642465E02D20F5B0023
:1005B000760A1B0E904646D0FF2B12D080220020D8
:1005C000F600D2047F3B1643ED186A1C434694465E
:1005D0004A467B400F2A00D974E0704992008A583D
:1005E0009746FF35002E54D14A4602231A439146BE
:1005F0000220EAE74346340082465246022A2AD0C5
:10060000032A00D1C3E0012A00D082E000220024A6
:100610006402D205600ADB0710431843E0BCBA4607
:10062000B146A846F0BD002C27D104239946033BD0
:1006300000259A46B7E7002C19D108239946063BB6
:10064000FF259A46AFE7002E08D14A4601231A43F8
:1006500091460120B9E7FF220024D9E7300000F0DD
:10066000DDFA431F2D1A9E40763D0020ADE70C2396
:100670009946093BFF259A4695E7200000F0CEFAFF
:100680007625431F9C4000236D422D1A99469A46B9
:1006900089E74A4603231A439146032095E73B0026
:1006A000ABE780240023E403FF22B1E78023DB03D0
:1006B0001C4245D01E4243D133435C02640A434688
:1006C000FF22A5E7200C2404210C0F00320C360475
:1006D000360C774351434643504389193A0C52181C
:1006E000964203D980214902884640443F041104C0
:1006F0003F0CC9198C01661EB441890E2143140CAC
:100700002418A4010C4322013CD5012261081440A5
:100710000C4360467F3000281ADD620704D00F22A8
:100720002240042A00D00434220103D560461C4A2A
:1007300080301440FE288EDCA401640AC2B267E750
:100740008020C00304436402640A3B00FF225FE789
:100750000122101A1B2800DD58E762469E32210054
:100760009440C140621E94410C43620704D00F22A2
:100770002240042A00D00434620105D4A401640A92
:10078000002245E7AC46C4E70122002440E780226E
:10079000D20314436402640AFF2239E70CEE00100E
:1007A000FFFFFFF7F8B543025B0ADA00DE46934627
:1007B0004A02520A454690464E4657464446E0B5E0
:1007C0004A0047003F0EE400120EA1469C463E0040
:1007D000C50FC90FBC1AFF2A00D175E001204140A6
:1007E0008D4200D180E0002C51DD002A00D073E062
:1007F0004B46002B00D1DDE0013C002C0FD0FF2F39
:1008000000D1A5E001231B2C09DC20224946121B44
:1008100091404B460A00E340511E8A4113435A4619
:10082000D31A5A0100D4C0E09B019C09200000F0BB
:10083000F5F9230005388340864200DDC4E0861BBD
:100840001A0020200136F240861BB3405C1EA341F3
:10085000002613435A0704D00F221A40042A00D05E
:1008600004335A0100D4A3E00136F7B2FF2E00D1C1
:10087000A7E09B015B0A5802FF05400AED073843D9
:100880002843F0BCBB46B246A946A046F8BD002CA2
:100890004FD1FE247A1C144200D099E05A46002F12
:1008A00000D000E1002A00D1F1E04A46002AE2D05F
:1008B0004B465A46D31A5A0100D402E14B465A46D7
:1008C0000D009B1A0026C5E74846002800D185E7A1
:1008D0008D4251D0002CDADDFF2F39D080234A46DB
:1008E000DB041A4391468DE7002C45DD002A3AD0FF
:1008F000FF2F2DD080234A46DB041A439146012363
:100900001B2C09DC20224946121B91404B460A0051
:10091000E340511E8A4113435B445A0145D50136D9
:10092000FF2E4ED001226E491A405B080B40134344
:1009300090E7D41B0D00002F6FD15B46002B00D138
:100940008FE0013C002C00D1C2E0FF2A6CD1C446EC
:100950006346002B35D080236246DB0313435B02E2
:100960005B0AFF2787E74B46002B23D0013C002C76
:1009700074D0FF2FC3D1EBE7002C35D1FE227E1CB3
:10098000324200D089E05A46002F6DD1002A00D1B2
:10099000A3E04A46002A00D16DE75B464B4400269F
:1009A0005A0102D54F4A013613405A0700D053E787
:1009B000DB089C46FF2ECBD063465B025B0AF7B296
:1009C00059E7FF27002356E7464A361A134041E706
:1009D0004B465A46D41A63016FD4002C00D025E749
:1009E00000250027002346E7D11B002F2CD0FF2A2B
:1009F000ADD080235846DB041843834601231B29CE
:100A000008DC5B4620245846CB40611A8840411ED2
:100A1000884103434B4416007FE7FF2A97D0802389
:100A20005946DB0419438B4601231B2C08DC20218B
:100A30005B465846E3400C1BA040411E88410343DF
:100A400049461600CB1AECE65B46002B09D001396B
:100A50000029DFD0FF2AD1D1C44679E75B464B4459
:100A60005BE7C4461600A5E7002A00D16FE74A46B7
:100A7000002A00D16CE78022D203134200D167E73D
:100A80004346134200D063E70D00C44660E74B467F
:100A9000002B1AD00D004346EDE6FF2E91D05B46A9
:100AA0004B445B0881E7002AE1D14B46002BEBD198
:100AB00080230025DB03FF27DDE64B460D009C1A53
:100AC000B4E60026002B00D06FE700250023D2E615
:100AD0004B46594616005B1AA3E64346CBE6C04692
:100AE000FFFFFF7DFFFFFFFB41024200C30F490AEA
:100AF000120E00207E2A03D99D2A02D9094A98188D
:100B00007047802000040143952A07DC9620821A52
:100B1000D1404842002BF3D10800F1E7963A9140CA
:100B2000F7E7C046FFFFFF7F70B5041E0DD000F051
:100B300075F89E22121A962A0EDCD2B208282EDDF3
:100B4000083884406002400A01E000220020400290
:100B5000D205400A104370BD992A09DD0300210027
:100B60001B3399404B1E994105231B1ADC400C4353
:100B7000052801DD431F9C4023000A490B406507FF
:100B800009D00F252C40042C05D004335C0102D57C
:100B90009F220B40121A9B01580AD2B2D7E760027B
:100BA000400AD4E7FFFFFFFB8446081C6146FFE7CD
:100BB0001FB500F0C5F8002801D40021C8421FBDB0
:100BC00010B500F049F84042013010BD10B500F0FA
:100BD000B7F8002801DB002010BD012010BDC04681
:100BE00010B500F0ADF8002801DD002010BD012097
:100BF00010BDC04610B500F057F8002801DC0020F9
:100C000010BD012010BDC04610B500F04DF8002801
:100C100001DA002010BD012010BDC0461C210123B7
:100C20001B04984201D3000C10391B0A984201D3CF
:100C3000000A08391B09984201D30009043902A2AD
:100C4000105C40187047C046040302020101010114
:100C5000000000000000000070B542004E024C0091
:100C600045026D0A120EC30F760A240EC90FFF2A21
:100C70000FD0FF2C11D00120A24200D070BDB54290
:100C8000FCD18B420DD0002AF8D12800451EA84186
:100C9000F4E70120002DF1D1EBE70120002EEDD18A
:100CA000E9E70020EAE7C046F0B5420046024D02FF
:100CB0004C00C30F760A120E6D0A240EC80FFF2ACD
:100CC0001FD0FF2C10D0002A1FD171427141002C7F
:100CD00001D1002D1ED000290ED183421ED0022149
:100CE000581E08400138F0BD002D26D1002AF4D14D
:100CF000714271410029F0D00028F4D10120404216
:100D0000F1E7002E19D1FF2CEED0002CE5D1002DFB
:100D1000E3D1E4E70020002EE5D0E0E7A24205DCC5
:100D2000EADBAE4202D8E7D30020DCE74142414192
:100D30004842022108400138D5E702204042D2E76C
:100D4000F0B5420046024D024C00C30F760A120E67
:100D50006D0A240EC80FFF2A0DD0FF2C0FD0002AD9
:100D600023D171427141002C0FD1002D0DD10020F3
:100D7000002E14D00DE0002E10D1FF2C15D1002D27
:100D80000CD1002A03D171427141002908D183425C
:100D900010D00221581E0840013800E00220F0BDAA
:100DA0000028FCD101204042F9E7002CEFD1002DB2
:100DB000EDD1EEE7A24205DCF2DBAE4202D8EFD382
:100DC0000020ECE7414241414842022108400138FD
:100DD000E5E7C04602B47146490849000956490092
:100DE0008E4402BC7047C04602B4714649084900AF
:100DF000095C49008E4402BC7047C04603B471468A
:100E0000490840004900095E49008E4403BC704710
:100E100003B47146490840004900095A49008E440C
:100E200003BC704703B47146023189088000890011
:100E300008584018864603BCF746C0464142084061
:100E40001C2101231B04984201D3000C10391B0AFA
:100E5000984201D3000A08391B09984201D30009BE
:100E6000043902A2105C401A7047C0461B1C1D1DAD
:100E70001E1E1E1E1F1F1F1F1F1F1F1FF0B5C64651
:100E800000B50F2A43D90B00032603431E400C0074
:100E90000300002E40D11500103D2D09AC462D0158
:100EA000A846804400E03B00676825685F60E7680B
:100EB0001D60DF601F00A56810379D60103443453A
:100EC000F1D165460F230C2401352D01491913403A
:100ED0004519144223D08C59AC5104369C1B032C69
:100EE000F9D80324043B9B0801339B002240ED18F2
:100EF000C918561E002A07D0002300E02300CA5C50
:100F00005C1CEA549E42F9D180BCB846F0BD050095
:100F1000561E002AF0D1F7E7561E0500ECE71A002E
:100F2000F6E7C046114B70B51C680500A06B0028A1
:100F300003D000230561436170BD183000F0AAF8AA
:100F4000A06300280CD00A4B01220360094B4360C8
:100F5000094B83600B238381002302614361E8E72F
:100F6000064B00224221064800F050F850080020AD
:100F70000E33CDAB34126DE6ECDE05002403011018
:100F80003C030110184B70B51D68AC6B002C0ED0E3
:100F900020696169154A164B0DF092FE012200236B
:100FA00012184B41580040082261636170BD18203F
:100FB00000F070F8041EA8630FD00E4B01220360EE
:100FC0000D4B43600D4B83600B2383810023026133
:100FD000436107480A4A064BE6E70A4B00224E21C6
:100FE000094800F013F8C046500800202D7F954CAA
:100FF0002DF451580E33CDAB34126DE6ECDE050006
:101000002E7F954C240301103C03011030B51C00C9
:101010000A4B05001B6885B0D868002A0AD0084B27
:101020000292019300912B002200064900F020F863
:1010300000F0CEFD044B1A00F2E7C0465008002035
:1010400070030110800301107C030110130010B520
:101050000022FFF7DBFFC0460CB400B583B004AB41
:1010600004CB019300F01EF903B008BC02B018478E
:101070000EB400B582B003AB0100054804CB006894
:10108000019300F00FF902B008BC03B01847C04646
:101090005008002010B5034B0100186800F064F8F8
:1010A00010BDC0465008002010B5034B0100186861
:1010B00000F004F810BDC0465008002070B50500CF
:1010C000002915D00C1F2368002B27DB280001F016
:1010D00035FB244B1A68002A05D0A2420CD921689E
:1010E0006018824224D0626028001C6001F02EFB50
:1010F00070BDA34203D81A005368002BF9D11168C0
:101100005018A0421BD027D821686018834207D00E
:1011100063605460280001F019FBE9E7E418D5E7A3
:1011200018685B6884466144216063605460F1E73D
:10113000106852688446614421606260D4E7206888
:101140000918501811608342E4D118685B6884461E
:10115000614411605360DDE70C2328002B6001F02F
:10116000F5FAC5E7980E0020F8B50323CD1C9D4382
:10117000083506000C2D2AD20C25A94229D83000AA
:1011800001F0DCFA2A4F3A68002A0AD013685B1B88
:1011900004D441E023685B1B1FD522005468002C57
:1011A000F8D17B68002B3DD02900300004F0EAFD27
:1011B000431C2AD00323C41C9C43A04205D0211AFF
:1011C000300004F0DFFD431C1FD0256010E0002D2F
:1011D000D3DA0C2300203360F8BD0B2B05D86368ED
:1011E000A2421DD0536003E014002360E418256080
:1011F000300001F0ABFA200007220B30231D904392
:10120000C21AE9D01B1AA350E6E70C233000336062
:1012100001F09CFA0020DFE70B2BE5D8140053689F
:101220003B60E5E70021300004F0ACFD7860BBE7EF
:10123000980E0020936810B5013B9360002B04DAF0
:101240009469A34207DB0A2905D01368581C106073
:101250000800197010BD00F0BFFBFBE7F8B50600F1
:101260000F00002B0DD01400D51802E00134AC4261
:1012700007D021783A003000FFF7DCFF431CF5D19E
:10128000F8BD0020FCE7C046936810B51400002BA1
:1012900002D10020536010BD00F002FF0023A360C4
:1012A0006360F8E7F0B5DE464E4657464546E0B582
:1012B0009FB003908B4691461C00002804D08369A0
:1012C0000293002B00D1CEE0BF4B9B4500D1D0E074
:1012D000BE4B9B4500D1D0E0BD4B9B4500D16FE19B
:1012E0005A465B46526E9B89D20702D49A0500D4B7
:1012F0005FE11B0700D443E15B461B69002B00D173
:101300003EE1002306AD6B6120336B761033AB7684
:101310002F3B98465B4602934B461B780594AD4F96
:10132000B346002B00D188E0252B00D126E14E46A4
:1013300003E0252B00D1A4E026007378741C002B59
:10134000F7D14B46E31A9A4677D053464A4602995C
:101350000398FFF783FF431C6FD06B6953446B61A5
:101360007378002B69D00122002352426A60443214
:1013700001342B60EB60AB60AB54AB6506E04346D9
:10138000C01B834034002A6813432B602178052258
:10139000380001F0E1F8661C0028F0D12B68B24655
:1013A000DA0602D543222021A9541A0702D5432286
:1013B0002B21A95421782A2969D1059A111D126877
:1013C0000591002A00DAB5E0EA606178A61C2E29B2
:1013D00000D175E0804B03221800994601F0BCF85B
:1013E000002800D18AE04B46C01A402383402A6877
:1013F000317813432B600622731C7848994629766E
:1014000001F0AAF8002800D183E0754B002B00D131
:1014100089E005AB0093029A724B2900039800E023
:1014200000BF83465B46013307D06B695B446B6149
:101430004B461B78002B00D076E7029B9B465B6EE9
:10144000DB0700D597E05B469B899A0500D48EE0C8
:101450005B0600D5A7E068691FB0F0BCBB46B2468A
:10146000A946A046F0BD00F0F5FC574B9B4500D0C7
:101470002EE7039B5B689B4632E7039B9B689B467A
:101480002EE74B46E31A9A4600D16CE75DE70A0067
:10149000303AA246092A9AD8EB68180001E03400D5
:1014A000013683001B1831785B0098180A00303A27
:1014B000092AF4D9B246E860A61C2E2900D089E793
:1014C000534659782A293BD1059B1A1D059252464D
:1014D0009178D61C022294461B68E2446B60002B74
:1014E00000DB77E701235B426B603B4B0322180074
:1014F000994601F031F8002800D074E7B14656460D
:10150000317806223548297601F026F8002800D0E7
:101510007BE705AB0093029A324B2900039800F059
:1015200007F983467EE70722059B07339343083379
:1015300005937AE75242EA60022213432B6044E7A4
:101540000A000023303A6B601800092A01D92DE007
:101550001E0083001B1871785B0098180A00303A4F
:10156000731C092AF4D99A460236686032E75B4652
:10157000986D00F07FFF5B469B8969E74C46F2E679
:101580005946039800F09EFA002800D1B9E65B4660
:101590005B6EDB0707D45B469B899B0503D45B46E8
:1015A000986D00F067FF0120404255E7B2460136D2
:1015B00010E75B46986D00F055FF5B469B8998E607
:1015C000039BDB689B468BE694EF001074EF0010E2
:1015D00054EF0010B0030110B8030110BC03011058
:1015E000000000005D12001010B504001300034A53
:1015F00010680A002100FFF755FE10BD50080020BA
:10160000F0B54F464646D646C0B51F00089B9146EA
:1016100098468A680B6906000C00934200DA1300B2
:101620004A4613604322A25C002A02D04A46013394
:10163000136023689A065AD54B461B6806209A1CED
:101640004B461A6023681900184208D1E16800254A
:101650008A1A19218A461900A244002A3FDC432332
:10166000E35C5A1E93418A060AD53020E1184331C3
:10167000087045215A1C615CA21843320233117074
:101680002200390043323000C047431C19D00623E2
:101690002068A26821690340042B30D08A423ADDD9
:1016A00000239946521A91441A34002502E001356C
:1016B0004D4530DA0123220039003000C047431C79
:1016C000F5D101204042E0BCBA46B146A846F0BD83
:1016D0004B46E2681B680135D31AAB4220DD01237B
:1016E000524639003000C047431CF1D1E9E70622D9
:1016F0001A4212D04323E35C5A1E9341C0E74B4683
:10170000E0681B68C31AD843C017184081468A4254
:10171000C8DC002BC8DC0020D5E74A46126895E7F4
:1017200043232168E35C5A1E93418A069DD4A7E7B0
:10173000F0B557469A4643239C464E464546DE46FC
:101740008C446346E0B587B003930B7E9146804698
:101750000C00109A6E2B00D1D8E000D871E0732BEA
:1017600000D11AE100D881E0752B00D1FFE0782B81
:1017700000D00BE10B6878204521605494498B46DA
:10178000116840C91160180603D4580601D5360403
:10179000360CDA0702D52022134323601027002ECF
:1017A00000D1C2E043230022E2546368A360002B0F
:1017B00000DAC5E00422216891432160002E00D0A8
:1017C00083E0002B00D0BDE0039D082F00D18CE00A
:1017D000039B5B1B2361534605AA009321004B46E4
:1017E0004046FFF70DFF431C22D023692A004946DB
:1017F0004046D047431C1BD022680598E3689207F7
:1018000000D47FE01A1A002A00DC7BE026000025C5
:10181000193606E0E368059801351A1AAA4200DC79
:1018200070E00123320049464046D047431CF1D1C5
:101830000120404207B0F0BCBB46B246A946A046D4
:10184000F0BD632B00D184E01FD8002B69D0582B4A
:1018500000D09BE0452163545E4923688B461168A4
:1018600040C91160180600D48FE792E76F2B7ED035
:10187000702B00D08AE02023096878200B43452193
:101880002360605452498B467AE7642B01D0692B60
:101890007CD111682368081D10601D064AD50A68AE
:1018A0001600002A03DB4B4B0A279B467DE74322A9
:1018B0002D21A15462687642A260002A02DB042234
:1018C00093432360434B0A279B46039D00E0060099
:1018D000390030000DF0ECF95B465B5C013D2B708C
:1018E000BE42F4D2082F00D072E72368DB0700D491
:1018F0006EE763682269934200DD69E73023013DAA
:101900002B7065E7984295DA180093E71368096829
:101910001D1D606915601B680E0601D449064BD475
:1019200018600023039D236155E7202322689A4312
:10193000226037E75D06B2D500228E5E3200B0E746
:10194000002EC2D15B4625001A7842234235E2546C
:101950003BE713682500191D11601A684223E25401
:10196000413B4235236143230022E25433E71168AF
:1019700020680D1D1560060601D440061ED40E68B1
:101980006F2B1DD0134B0A279B460BE742222500E5
:10199000A354012342352361E5E71368191D116043
:1019A0001D6862680021280000F0D6FD00280BD0D9
:1019B000401B60602061D6E71880B2E70E88DFE741
:1019C000044B08279B46EDE660682061CBE7C046E4
:1019D000D8030110C4030110F8B505000E0014006F
:1019E000002802D08369002B29D02D4B9C422BD09C
:1019F0002C4B9C4246D02C4B9C424ED0A369A360FA
:101A0000A3891B0726D52369002B23D0FF22F7B219
:101A1000616916402268D31A99422ADD0133A16810
:101A20000139A160511C2160177062699A422BD064
:101A3000A389DB0701D50A2E26D03000F8BD00F0BF
:101A400009FA174B9C42D3D16C68A369A360A389A0
:101A50001B07D8D42100280000F034F8002819D141
:101A6000FF222369F7B2616916402268D31A9942AE
:101A7000D4DC2100280000F04DF900280AD12268AA
:101A80000123CCE7AC68B9E72100280000F042F957
:101A90000028D2D001267642CFE7EC68AEE7C046F8
:101AA00094EF001074EF001054EF001010B5044BC9
:101AB0000A001B6801001800FFF78EFF10BDC0462A
:101AC000500800203E4B70B51D6806000C00002D2C
:101AD00002D0AB69002B1BD03A4B9C421ED03A4B34
:101AE0009C424CD0394B9C4260D00C23E25E93B2B6
:101AF000190719D52169002921D0DA072ED500232D
:101B0000A360636900205B42A36100292ED070BDF1
:101B1000280000F09FF92B4B9C42E0D16C680C230D
:101B2000E25E93B21907E5D4D90641D55B0728D404
:101B3000216908231343A3819BB20029DDD1A02290
:101B40008020920080001A408242D6D021003000CE
:101B500000F0BAFCA3892169DA07D0D400229B07E0
:101B600000D46269A26000200029D0D10C22A35EBB
:101B70001A06CCD540221343A3810138C7E7AC68CD
:101B8000B3E7616B00290AD023004433994204D0A3
:101B90003000FFF793FA0C23E25E002363632423F3
:101BA0009A430023216963602160C2E7EC689CE7E7
:101BB00009233360402301201A43A2814042A6E753
:101BC0005008002094EF001074EF001054EF001044
:101BD00010B5062000F078FE012004F0BFF8C046E2
:101BE000F0B5C64600B58B8980460C001A0745D46F
:101BF0004A68002A63DDE56A002D3BD04246414633
:101C0000166800220A60216ADA045CD401230022EB
:101C10004046A847431C61D0A389E56A216A5B0757
:101C200006D56368C01A636B002B01D0236CC01A01
:101C3000002302004046A847431C46D143461B6888
:101C40000C21625E002B56D01D2B01D0162B5DD1CE
:101C500000236360236923604346616B1E60002993
:101C600008D023004433994202D04046FFF726FAB9
:101C700000236363002080BCB846F0BD0E69002ECF
:101C8000F8D00A680E60951B00229B0700D14A69B4
:101C9000A260002D04DCEDE736182D1A002DE9DDD9
:101CA0002B003200216A4046A76AB8470028F3DCBF
:101CB00040220120A38940421343A381DBE70A6C41
:101CC000002A98DCD6E7606DA9E7002363602369EA
:101CD0002360A389DB04BFD56065BDE743461B686D
:101CE000002B99D01D2B0DD0162B0BD04022A38991
:101CF0001343A381BFE7636023692360D304ABD59B
:101D00006065A9E7434600201E60B4E740231A43FC
:101D1000A281B0E70B6970B505000C00002B23D041
:101D2000002802D08369002B22D0194B9C421DD081
:101D3000184B9C421FD0184B9C4226D00C22A35E0D
:101D4000002B11D0626ED20701D49B0519D5280053
:101D50002100FFF745FF636E0500DB0702D4A3896E
:101D60009B050AD5280070BD0025FBE76C68E5E7F8
:101D700000F070F8D9E7AC68E0E7A06D00F07AFBFE
:101D8000F0E7A06D00F06EFBE1E7EC68D6E7C04637
:101D900094EF001074EF001054EF001010B5011E06
:101DA00004D0054B1868FFF7B5FF10BD034B04497D
:101DB000186800F027FBF8E75008002050EF0010EB
:101DC000151D001010B5024900F01CFB10BDC046E7
:101DD000151D0010436E10B5DB0702D483899B05E7
:101DE00001D5002010BD806D00F03CFBF9E7C04636
:101DF000436E10B5DB0702D483899B0501D5002013
:101E000010BD806D00F036FBF9E7C04670B5682460
:101E10004A1E54430E0021007431FFF7A5F9051E38
:101E200009D000232200036046600C30A8606832AD
:101E3000002100F02FFC280070BDC04610B5034BF8
:101E40000349186800F0DEFA10BDC04650EF0010DC
:101E5000151D0010F0B5DE46454657464E46E0B526
:101E600005003D4B83B018009B4600F0FBFAAB69C0
:101E7000002B64D1AB64EB642B65384B384A1B688C
:101E8000AA620193AB4264D0280000F077F8686042
:101E9000280000F073F8A860280000F06FF86E6862
:101EA0000024E86004233000F360746634607460DA
:101EB000B46034617461B461082200215C3000F0C8
:101EC000E9FB284B284F9A467362284B36629946A5
:101ED000B362274B3763F362AE6898463000254BF8
:101EE0007466F36034607460B46034617461B461CA
:101EF000082200215C3000F0CDFB534673624B4654
:101F0000B36243463662F3623763EE681A4B3000C1
:101F1000F360746634607460B46034617461B46199
:101F20005C300822002100F0B5FB534673624B463B
:101F3000B3624346F362012336623763AB615846AE
:101F400000F098FA03B0F0BCBB46B246A946A046E2
:101F5000F0BD0123AB6197E7403C002050EF00103B
:101F6000C51D001055290010ED2900108129001011
:101F7000C12900100900010012000200F8B5254E29
:101F80000700300000F06EFA234B1D68AB69002B90
:101F90002ED048356B68AC68013B03D523E068342C
:101FA000013B20D30C21625E002AF8D100252000DD
:101FB0001A4B5830E360656600F04CFA300000F0D0
:101FC00059FA20002560A560656025616561A561FD
:101FD000082200215C3000F05DFB6563A563A56409
:101FE000E5642000F8BD2C68002C05D02500D1E761
:101FF0002800FFF72FFFCCE704213800FFF706FF8A
:10200000041E2860F2D1300000F034FA0C233B604B
:10201000E7E7C046543C002050EF00100100FFFFEE
:1020200010B5024800F01EFA10BDC046543C002016
:1020300010B5024800F01EFA10BDC046543C002006
:1020400010B5024800F00EFA10BDC046403C00201A
:1020500010B5024800F00EFA10BDC046403C00200A
:1020600010B5044800F0FEF9034B0449186800F06D
:10207000A7F910BD543C002050080020D51D0010C9
:1020800010B5044B0449186800F09AF9034800F0B1
:10209000F1F910BD50080020F11D0010543C002043
:1020A000F0B54546DE4657464E46E0B5936883B0E8
:1020B00000900C009046002B6DD08B891A0700D43D
:1020C00071E00A69002A00D16DE0424616689A075D
:1020D00000D475E0A36A00279A46B54B00259946BF
:1020E000216A002D16D02B004D4500D9B04B3A0087
:1020F0000098D047002800DCD5E043469B683F1895
:102100002D1A181A4346986045D0A36A216A9A4648
:10211000002DE8D1376875680836E2E74B461B6842
:102120009A464B465F6808239C46E144002FF5D051
:102130003A000A21504600F00FFA002800D1CEE004
:1021400053460130C61A3300BB469F4200D99B4616
:10215000206822696369904204D9A2689D18AB4542
:1021600000DD92E05B4500DDF9E0A56A5246216A98
:102170000098A847051E00DC95E0761B0120002E84
:1021800000D1E4E043469B68AA447F1B5D1B4346A5
:102190009D6000D095E0002003B0F0BCBB46B24685
:1021A000A946A046F0BD21000098FFF78BFC00284F
:1021B00000D0F9E04246A38916689A0700D589E75E
:1021C000DA0778D4002291468022920000279346B5
:1021D000A5682068002F53D05A46134200D181E0F1
:1021E000AA46BD4200D9AFE09022D20013422ED0C1
:1021F0002169451AAC466069019542001218D00F5A
:102200008218781C521060449246904201D982464E
:1022100002005B0500D4AFE011000098FEF7A4FFB8
:10222000051E00D1BAE0019A2169FEF727FEA389B5
:10223000604A134080221343A3815246019B2561CB
:10224000E818BA463D00D31A20606261A360524686
:10225000494600F0C1F9A3685D1BA5603D00002759
:1022600023685344236043469B68A9445D1B43464F
:102270009D6000D18FE7A5682068A389002FABD1AE
:102280003268776891460836A4E751462A0000F084
:10229000A3F9236821005B1923600098FFF73AFD3A
:1022A000002800D169E70C22A35E402201201343DD
:1022B000A381404270E70023B14600209A460027E0
:1022C0001E00002F00D129E7002800D03BE73A008C
:1022D0000A21504600F040F9002800D030E77B1C6E
:1022E0001E0031E72369834217D363699A46BB42D4
:1022F00013D8314B38009F4200D9304851460CF07A
:10230000B7FC53464A464343216A0098A56AA8474A
:102310000028C8DD05007F1BA5E7BD4200D93D00B0
:102320002A00494600F058F9A36822685B1B52193D
:10233000A3602260002BEED121000098FFF7EAFC99
:102340000028B0D17F1B8EE73D00BA467FE7210011
:102350000098FFF7DFFC002800D113E7A3E75A46F7
:10236000514600F039F95A46A3685D469B1AA360AE
:1023700023685B44236000E7009800F0EFF9051E36
:1023800000D05AE7009D21692800FEF797FE8022C1
:10239000A3899343743A1BB22A6086E70C23009A00
:1023A00013600C22A35E80E701204042F4E6C046A1
:1023B00000FCFF7F7FFBFFFFFEFFFF7FFFFFFF7F34
:1023C000F0B5C646483000B588460700002600280C
:1023D00013D07B68BC685D1E0CD4A389012B06D981
:1023E0000E22A35E013302D02000C04706436834AA
:1023F000013DF2D23F68002FEBD1300080BCB846DF
:10240000F0BDC046F8B54746CE4680B50700483710
:10241000804689460026002F14D07B68BC685D1E6C
:102420000DD4A389012B07D90E22A35E013303D05B
:1024300021004046C84706436834013DF1D23F6859
:10244000002FEAD13000C0BCB946B046F8BDC04646
:102450007047C0467047C0467047C0467047C04688
:102460007047C0467047C046012070470120704742
:102470007047C0467047C04670B50C001D000E2363
:10248000C95E96B01600002914DB6A4603F06EFCA4
:1024900000280FDBF022019B12021340094A9446E8
:1024A00063445A4253412B608023DB003360002099
:1024B00016B070BD00232B60A3891B06F4D5402302
:1024C0003360F4E700E0FFFF70B58B8982B006004F
:1024D0000C009B0707D523004733236023610123AA
:1024E000636102B070BD01AB6A46FFF7C5FF00999A
:1024F00005003000FEF738FE002810D08022154B72
:10250000B362A38920601343009A1BB26261019AEF
:10251000A3812061002A0CD12B43A381E1E70C2287
:10252000A35E9A05DDD40322934302221343A381C1
:10253000D1E70E23E15E300003F016FC002802D143
:102540000C22A35EE8E70322A389934301221343ED
:102550001BB2E1E7C51D001070B5CDB2830734D0C2
:10256000531E002A1BD00278AA4219D0032404E08B
:10257000013B14D30278AA4212D001302042F7D195
:10258000032B0ED8002B0AD00278AA4208D0C31819
:1025900002E00278AA4203D001308342F9D1002040
:1025A00070BDFF220C06240C114021430C04084E80
:1025B0000C43026807496240511891433142E3D10C
:1025C000043B0430032BF4D8DCE71300D8E7C04603
:1025D00080808080FFFEFEFEF0B5C64600B58842D2
:1025E0000CD98B18984209D2531E002A03D0CA5C1A
:1025F000C254013BFBD280BCB846F0BD0F2A0CD8B8
:102600000500561E002AF6D0002300E02300CA5C15
:102610005C1CEA549E42F9D1EDE70B00032603430C
:102620001E400C000300002E2ED11500103D2D0978
:10263000AC462D01A846804400E02B001D00276811
:1026400010351F6067685F60A7689F60E768103497
:10265000DF604345F1D165460F230C2401352D0180
:10266000491913404519144211D08C59AC51043604
:102670009C1B032CF9D80324043B9B0801339B00CB
:10268000ED18C9182240BCE7561E0500BCE71A0029
:10269000B7E7C046F0B5050083074AD0541E002AAC
:1026A00044D0CEB20300032202E00135013C3DD309
:1026B00001332E701342F8D1032C2FD9FF220A4088
:1026C000150215432A0415430F2C35D92700103F56
:1026D0003F093E01B4461E001A00103666441560DC
:1026E00055609560D5601032B242F8D10F260C22A9
:1026F00001373F012640DB193700224217D03E1F29
:10270000B608B400A4461A001C1D644420C2A242AC
:10271000FCD103240136B6009B193C40002C05D0A7
:10272000C9B21C19197001339C42FBD1F0BD3400B1
:10273000F4E714000300BFE72700E0E710B5024804
:10274000FFF790FE10BDC046443C002010B5024883
:10275000FFF790FE10BDC046443C0020F8B50700CE
:102760000C00150000291BD0002A15D000F044F9F8
:102770002600A84201D33000F8BD29003800FEF73A
:10278000F3FC061EF7D021002A00FEF777FB21009C
:102790003800FEF793FCEEE7FEF790FC0026EAE730
:1027A0001100FEF7E1FC0600E5E7C04610B5802108
:1027B0000400FEF7D9FC6064002807D00200002363
:1027C000803208C09042FCD1002010BD0120404260
:1027D000FBE7C046426C10B50023002A01D0180068
:1027E00010BDFFF7E3FF0300F9E7C04670B5050031
:1027F0000C0016001F2907D8436C002B09D0A40039
:102800001B1918681E6070BD16230360012040422A
:10281000F9E7FFF7CBFF002801D16B6CEFE7012050
:102820004042F0E770B505000C001F2920D8436C2A
:10283000002B0ED08A009B181A68002A09D0012AA2
:1028400014D0511C0ED000212000196090470020A8
:1028500070BD280000F07AF822000100280000F086
:1028600061F8F5E7162303600120F1E70020EFE7A8
:102870001623036001204042EAE7C04670B5050018
:102880000C001F291DD8436C002B10D0A2009B18F0
:102890001A68002A09D0511C11D0012A0DD000213C
:1028A000200019609047002070BD0120FCE7FFF771
:1028B0007DFF002805D16B6CE8E70320F4E70220D8
:1028C000F2E701204042EFE710B5034B0100186822
:1028D000FFF7A8FF10BDC0465008002010B5044BFC
:1028E0000A001B6801001800FFF780FF10BDC046FA
:1028F00050080020054B10B51B6800205A6C002AB8
:1029000000D010BD1800FFF751FFFAE75008002073
:1029100010B5034B01001868FFF7B0FF10BDC046AB
:1029200050080020002370B5074C05000800110076
:10293000236003F00DFA431C00D070BD2368002B08
:10294000FBD02B60F9E7C046583C002010B503F0DF
:10295000FDF910BD70B50C000E25495F03F036FA85
:10296000002803DB636D1B18636570BDA389024AF1
:102970001340A381F9E7C046FFEFFFFF0020704737
:10298000F8B516001F000C228B5E0C0005000E220D
:10299000895EDA0508D4094A28001340A381320071
:1029A0003B0003F00FFAF8BD0022022303F00CFAFB
:1029B0000C22A35E0E22A15EEDE7C046FFEFFFFFF3
:1029C00070B50C000E25495F03F0FEF9431C06D0DC
:1029D0008023A2895B011343A381606570BDA38935
:1029E000014A1340A381F9E7FFEFFFFF10B50E2363
:1029F000C95E03F0E5F910BD0B1F1B68181F002B03
:102A000000DB70470B58C018FBE7C04630B5032AFF
:102A10000CD903000B439B071CD103680C68A3422D
:102A200018D1043A04300431032AF6D8551E002A7E
:102A30000ED002780C7894420ED101350123013971
:102A400004E0C25C0133CC5CA24205D1AB42F8D1B8
:102A5000002030BD551EECE7101BFAE710B58307C8
:102A600027D00378002B26D00300032102E01A7838
:102A7000002A1CD001330B42F9D119680F4A104CBF
:102A80008A188A4322420FD1043319680B4A8A18E4
:102A90008A43224208D104331968084A8A188A43B3
:102AA0002242F1D000E001331A78002AFBD1181A33
:102AB00010BD0300E1E70020FAE7C046FFFEFEFE7E
:102AC0008080808072B6D02109060B68054A9B0081
:102AD000D3185B68986502235B424B65053313701E
:102AE000FEE7C04644150020F0B505000C2485B073
:102AF0000F00110E1202019201981A000023029198
:102B00000CF0E6F86C43274B0600E4186368039169
:102B1000834200D260602B1FDBB20093C023009A77
:102B20009B012343012A2ED8012F2CD103221A60A6
:102B30003B00A2681A42FCD0E022236813408022A6
:102B4000520122431360009B012B09D80321236803
:102B50007B400B4013600123BB40A2681342FCD0B2
:102B6000802380229B01234312011A600198039B5A
:102B70006660320002990CF0ABF80B4BAD00E850E8
:102B8000012005B0F0BD802212011A60064BAA0098
:102B9000D1580029D0D058690CF07AF801300138AA
:102BA000FDD1C9E70080004060150020074810B53E
:102BB0000178052908D10300E0331B7803704368CE
:102BC0001B68002B00D0984710BDC046D00F0020D6
:102BD0008322534B920010B5DA620022AA21514B96
:102BE00009019A67504A514811602131FF31D16083
:102BF0004F49086051680029FCDA01214D4A1160F3
:102C00005A6C012AFCD103214B4A11609A6B012AAC
:102C1000FCD14A4B1A68002A11DA3F211A680A408F
:102C2000012A0CD19A681205120D7D2A07D1EE21D6
:102C3000DA68C9020A40C421C9028A421AD0802235
:102C40003F4952010A603F493F480A6014008168C9
:102C50008C43211EFAD101221A607C329A603B4AD1
:102C60002131116019680029FCDAC421C902D96038
:102C700008231360364B1A68002A11DA3F211A68BC
:102C80000A40012A0CD19A681205120D642A07D154
:102C9000EE21DA68C9020A40AA21C9028A421AD082
:102CA0008022274992010A60264927480A601400B9
:102CB00081688C43211EFAD101221A6063329A6026
:102CC000244A2131116019680029FCDAAA21C902BD
:102CD000D96008231360204B02211A000420FFF75B
:102CE00003FF1E4B01211A000520FFF7FDFE1C4BC0
:102CF00000211A000720FFF7F7FE194B00211A00E8
:102D00000820FFF7F1FE174B154A00210920FFF7B5
:102D1000EBFE124B00211A000620FFF7E5FE10BD66
:102D200000800540008000400040024000B0FA00F2
:102D3000006002403CB0004030B0004000800240E3
:102D400000E0004000F0004000C0004004B002403D
:102D500000C0024004F00240001BB7004059730756
:102D6000006CDC021BB70000F0B500292FD11D4B11
:102D7000DC6C8B1C9B00C018426801239569A87C01
:102D800007007E1EB7414340AB742E68508A7F0314
:102D9000B04200D930008023DB000343124A9BB2CB
:102DA0003B4313406A688018864202D88022D201D1
:102DB00013430E4A144080229205144300290BD17C
:102DC000084AD4640A4AC90089184B60F0BD094A10
:102DD000CB009B185C68CCE70648CA001218546008
:102DE000F0E7C04600001150FF7FFFFFFFFFFFAF7D
:102DF00080001050000010507F220138C31713408C
:102E00001B18DB110133DB0102329BB2FF3210B51C
:102E100093420ED0FF2480220749D2002402591881
:102E20001000214204D0181C934200D9101C80B21B
:102E300010BD80208000FBE780FDFFFF034B1A6878
:102E400082431A609A681042FCD0704700C000406C
:102E5000BFF35F8FD023BE221B0652009B5062B689
:102E6000704772B6D021BE22090652008B58002B43
:102E7000FCD0BFF35F8F7047F7B5154C154AA36AB6
:102E8000C5690193436864261B68934204D9124ABA
:102E90004B3E934200D90F3E0127EB6EBB43EB66DE
:102EA000FFF7D6FF2B009C331B683B4001D11C0071
:102EB0000AE0FFF7D6FFA36A019A9B1AB342EFD349
:102EC0000124FFF7C5FF6442FFF7CBFF2000FEBDE2
:102ED00000400540A0860100801A0600C022436819
:102EE000D20510B5D968DA608368054A0133DB0082
:102EF0009C58002C02D0D3185868A04710BDC0467B
:102F0000C415002070B50E0001210C00B44005006E
:102F1000408920436881B01C80002818406884697B
:102F2000A260002223606260E260934205D0418A81
:102F3000013B58180BF0ACFE81B221822800310011
:102F4000FFF712FF70BD00000300020010B5D6337A
:102F50001B78DE3213707F221340064A0400136090
:102F600043681B68002B01D001219847032323707D
:102F700010BDC04600001150036910B51960C26849
:102F8000013AC260C2699B1882690361934201D30E
:102F9000436A036100238362036B002B00D09847D0
:102FA00010BD436902699A4202D1C268002A03D166
:102FB000180008C80B60704700231800FAE70300E8
:102FC0001B68984204D09A6894468A689445F7D260
:102FD0005A680B604A6011605960704730BFFDE766
:102FE00000238268037503691B6899689142FBD8C6
:102FF0005A6803604260106058607047002382681E
:10300000037503691B6899689142FBD25A68036093
:10301000426010605860704710B50C00FFF721FF48
:10302000207D052807D8FDF7DFFE0C060603130FE9
:103030000022A3691A6001235B42A3612000FFF70D
:10304000DDFFFFF705FF10BDA269936801339360B0
:103050006268236813605A60EDE70000D0231B0606
:103060001968084A890052185268016910B59142DE
:1030700005D01A6D920702D5012252425A65FFF718
:10308000BDFF10BD4415002070B5022504006D423F
:103090002068844200D170BD036823605C60856154
:1030A000FFF7DCFFF4E7036A10B5C360436A4361CE
:1030B000036100238362C362FFF7E6FF10BD0000D7
:1030C000F0B50468C2608B6048600C6061600160AC
:1030D000142B00D21423D0252D062968144C890006
:1030E000611849689E188F6A1249381D8000465041
:1030F0000120B84048638E6B3043886314208E6A89
:10310000B71ABB420CD82B6801309B00E3185B68F0
:1031100012189B6A04339B00CA5003003200EEE78A
:10312000142803D90123E2681343E360F0BDC046CD
:103130004415002000400540F0B5142900D21421A8
:10314000D02614220D4C0E4D3606336847189B00CE
:10315000E3185B689B6A04339B005F51AB6A181AE3
:10316000814203D8013211001800EEE7142A03D976
:103170000123E2681343E360F0BDC046441500201C
:103180000040054010B503689C68A2420CD85C68FA
:103190008A600B604C602160596099688A1A9A6055
:1031A00001235B42836010BD121B1B68ECE700002B
:1031B000D02212061368F0B52E4E9B00F3185D68FE
:1031C00085B02B001033019303922C692A4FE969D3
:1031D000B86AA368421A934242D8CB18EB6162687E
:1031E0000293236813605A60002323602A69019BBD
:1031F00093420AD10121039B1B68BA6B9B00F31811
:103200005B689B6A99408A43BA63FFF721FEE368D3
:10321000216920009847FFF724FE6369002BD4D072
:10322000BA6A0299511A8B420DD20223F068034305
:10323000F360002301982F69B84208D12100FFF7FD
:103240003FFF05B0F0BD02981B189B1AF2E75A1811
:103250008A4200D21A0021000198FFF793FFB4E7D9
:10326000019AA242EDD0C918091AE861A160FFF7DE
:1032700063FFE6E7441500200040054070B50829CB
:1032800001D9002070BD890044182368002BF8D0B4
:10329000FFF7E7FD23681D685C68FFF7D9FD002D87
:1032A000EFD00B4BFA22986A9200001B00240023F7
:1032B00021000BF005FD0023064A80185941064AFB
:1032C00000230BF005FDA8426441E0B2DAE7C046F6
:1032D000004005403F420F0040420F0000230829F4
:1032E00006D889000A58131E02D013689B08DBB267
:1032F000180070474B1E072B0BD889000B58002B6A
:1033000007D091001960511E8A41024B19780A4377
:103310001A707047301F0020036870B50400002B3E
:1033200001D1002070BDFFF79CFD23681D685C681B
:10333000FFF78EFD002DF4D00A4BFA22986A920016
:10334000001B0024002321000BF0BAFC0023064AD6
:1033500080185941054A00230BF0BAFCA842644189
:10336000E0B2DFE7004005403F420F0040420F005F
:103370000368181E02D018688008C0B270470000A9
:103380000368002B07D091001960511E8A41024B3F
:1033900019780A431A707047301F002070B5050075
:1033A000FFF75FFD2B696A69002493420BD1EB683C
:1033B000A34208D06B6F78352A780134944018897D
:1033C000044060424441FFF743FD200070BD03000C
:1033D000006F10B50278042A15D11A0074321178E2
:1033E00001228A40448922420DD11A695C69A242B5
:1033F00002D1DC68002C06D10432002A03D0DB693C
:10340000043BFFF77FFD10BD0B0021339B0070B51F
:103410001C5806000D00002C2FD00235AD00751988
:10342000FFF71FFD6B689B695B68002B20D02300B2
:1034300074331B78226F02339B00D3185B689B693F
:103440005A6823691A60E2680132E260E2699B18F7
:10345000A2692361934201D3636A23612068844295
:1034600006D0036823605C6000238361FFF7F6FDEC
:103470002000FFF7ACFFFFF7EBFC70BD10B5406B11
:10348000FFF7A5FF10BD0000014B18787047C0463C
:10349000CC1A002070B50400D43002787F231100CC
:1034A0001940212900D0A1E0110099435DD0802965
:1034B00000D09BE04378022B36D0032B26D0012B83
:1034C00053D10379022B01D9002070BD81780829DE
:1034D000FAD85D4AD25C022AF6D894235A435B4B51
:1034E0009B1890331B68002BEED0594D5E682A0064
:1034F0001868B04723002A00C83308321A60AA6C43
:10350000D0345A60002323600120DEE7437901793B
:103510001B020B4329D1220001204E49C832116001
:103520005060D0342360D0E70379022BCCD8817867
:103530000829C9D8444AD25C022AC5D894235A43E0
:10354000424B9B1890331B68002BBDD05A691868FA
:1035500090472200404BC8321870136023000120AE
:10356000CC331860D0340023DCE743780A2B22D018
:103570000B2B11D0092B39D1437901791B020B4355
:1035800001D0022B32D12300344AC8331A60022200
:10359000D0345A60324BB6E7437902791B021343A9
:1035A00002D182782B4B1A7022000023C83213609C
:1035B0005360D034A7E70379022B00D984E78178E0
:1035C000082900D980E7204AD25C022A00D97BE78B
:1035D00094235A431D4B9B1890331B68002B00D13A
:1035E00072E7C2781D691868A847DDE760230025E7
:1035F0009A43812A18D14378062B15D14379027951
:103600001B0213438178C278606846682000B04787
:10361000A84200D158E723004268C8331A60026804
:10362000D0345A6025606FE7DE2676000D4B5B597B
:10363000002B03D19435B542F8D145E720009847D7
:103640000028F7D041E7C04654020110DC0B0020EF
:10365000001E0020C60B002090170020341F002001
:1036600069360010640C002010B5D430C3790749C6
:1036700084791B020A782343022B04D1012A01D04A
:10368000062A02D14A78024B1A7010BD341F00205E
:10369000CC1A00200F2230B507490C78631C134068
:1036A000064A157800229D4203D0054A0B7010553A
:1036B0000122100030BDC046981600209916002047
:1036C00088160020D430C37882781B021A434379CD
:1036D00001791B020B43110A032912D006D80129D4
:1036E00025D0022926D00023180019E0212911D065
:1036F0002229F8D1022BF6D8104A99008858104A8E
:1037000006E0D3B2032BEED80E4A990088580E4A31
:10371000D35C05E0022BE6D80C4A9B00985809239D
:103720000B4A50601360002800D01000704712232D
:103730000848F5E75B230848F2E7C046D4F00010DC
:10374000E0F00010B4F00010C4F00010C8F0001059
:10375000B81500203EF10010E3F0001010B5154B35
:103760001A7801231A4207D0134B1B789B080120BB
:10377000002B0ED0D8B20CE0910703D50E4B1B786E
:103780005B08F4E7520705D50B4B1B787F2083427B
:10379000EDD910BD094A1278002AEBD0084B1978F0
:1037A000054B18788A4201D383B2EFE750430BF000
:1037B0005FFAF9E7D41B0020D00B0020D61B0020B5
:1037C000D10B002010B5184B1A78184B1B89D10764
:1037D0000CD5174A107843439B109BB27F2083423D
:1037E00003D87E38002B00D0D8B210BD910704D585
:1037F0000F4A107843435B10EFE7520703D50C4A9A
:1038000010784343E9E70B4A10780028E6D00A4ACB
:103810001178074A127853438842DED258430BF09E
:1038200027FA83B2DAE7C046D41B0020A80F002095
:10383000CC0B0020D51B0020CD0B0020B523584316
:10384000002806DA8038C317DBB21818001240B21D
:1038500070478030FAE700001C4BFA21D8681C4BF7
:1038600089001B6870B5DB00D8400F231840194B46
:10387000013058430BF00CFA174B596A9C6A5A6A8C
:103880008A4220D10026220004008C200B00350043
:103890000021400024184D4112196B410F490A6064
:1038A0004B60FFF7DEFA0E4B9A6801329A60B24223
:1038B00006DC1868026853601A608661FFF7CEFB69
:1038C000FFF7C6FA70BD1100D8E7C04600002050CF
:1038D000C40800203075000000400540A00F002003
:1038E000C808002010B5104C0A21A0880BF0D0F9B0
:1038F0000E4B0A211870E2880D4B1A7062890D4B2D
:103900001A70A2890C4B1A70E0890BF0C1F90B4BAD
:103910001870228A0A4B1A70628A0A4B1A70A28A9D
:10392000094B1A7010BDC046A80F0020CA0B00201A
:10393000CB0B0020CC0B0020CD0B0020CE0B0020A9
:10394000CF0B0020D00B0020D10B0020024B1A8897
:10395000024B1A807047C046A80F00201E0B0020A3
:10396000002210B5064B074C074808499A610132FE
:103970009C60D86019611C33202AF7D110BDC04665
:10398000581F0020CD90001009910010A591001043
:10399000F823DB01984205D1034B1B685A1E934163
:1039A0005B4218407047C0461C260020F0B5104C02
:1039B0006478002C19D1162819DD173803244443E4
:1039C0000C4D2E1977788F4205D1645D944202D157
:1039D000B4789C420BD00126074C26700324604328
:1039E0002C1861702A54A37001E01628E6DDF0BDA2
:1039F000371F0020A01E002088360020074A1379B8
:103A0000103B1BB2191C002B00DA0021012311719D
:103A1000034A11780B4313707047C046981E00206C
:103A2000C0150020064A13791033191CFF2B00D94A
:103A3000FF2101231171034A11780B431370704762
:103A4000981E0020C015002030B5084C2578AD0721
:103A50000AD0A1706070111C322A00D93221044AA8
:103A6000E17011780B43137030BDC046981E0020E2
:103A7000C015002010B50748C378103B1BB21A1CB4
:103A8000002B00DA00228178D2B240780123FFF7C0
:103A9000DBFF10BD981E002010B50748C378103317
:103AA0001A1CFF2B00D9FF228178D2B24078012363
:103AB000FFF7CAFF10BDC046981E002010B507488A
:103AC0008378C278103B1BB2191C002B00DA00214E
:103AD000C9B240780123FFF7B7FF10BD981E002040
:103AE00010B507488378C2781033191CFF2B00D912
:103AF000FF21C9B240780123FFF7A6FF10BDC046E1
:103B0000981E002010B5054B5878DA780838997857
:103B100080B20123FFF798FF10BDC046981E002019
:103B200010B5044B5878DA78997808300123FFF7FC
:103B30008BFF10BD981E00200A235843C0B203001B
:103B40000A331A1CDBB282B02E2B00D92E220B496D
:103B5000D3B2497800290AD0172B00D91722D3B243
:103B6000FF22134010401B02184302B07047021C92
:103B7000172800D21722D0B2F2E7C046371F002024
:103B8000074B10B51870074B074A1B789B079B0F14
:103B9000137003F0D5FA0322044B1A7010BDC0460F
:103BA000D70B0020981E0020D80B0020D90B002036
:103BB00084B004AA12880190D21A92B2131CFF2A70
:103BC00000D9FF23DB4301AA9178DBB25B18191CF3
:103BD000FF2B00D9FF211288FF231000120A184082
:103BE00012020B401B041043184304B070471FB56A
:103BF00006AA12880190D21A92B2131CFF2A00D989
:103C0000FF23DBB2D84301AA9178C0B2091810781B
:103C10000C1C1B181370FF2900D9FF241288FF23E6
:103C20001000120A1840120223401B0410431843CC
:103C300004B010BD7FB5040C019008A8068801AD42
:103C4000E0B2FF24482B06D8F31A9BB21E1CA342F5
:103C500000D9261CB4B2083189B2102905D9130045
:103C600008339BB2102B00D9FF240321E443D31760
:103C70000B409B180B4AE4B252789B1024189B18F7
:103C80002B70211CFF2C00D9FF212A88FF23100054
:103C9000120A184012020B401B041043184304B0D0
:103CA00070BDC046981E00201FB5019006A8008870
:103CB000C318C81709184140D017121809B29BB28F
:103CC00042400901FF2900DDFF2112B21201FF2A43
:103CD00000DDFF22081C14B209B2A14200DD101C55
:103CE0001B189BB21A1CFF2B00D9FF22D34301AA39
:103CF0009178DBB25B18191CFF2B00D9FF211288C9
:103D0000FF231000120A184012020B401B0410433C
:103D1000184304B010BD052184B0594304AA128889
:103D20000190521892B2131CFF2A00D9FF23DB43E3
:103D300001AA9178DBB25B18191CFF2B00D9FF2177
:103D40001288FF231000120A184012020B401B04B5
:103D50001043184304B0704784B00190031CC8435B
:103D6000C0B2800801AAC01810701188FF23080093
:103D70009278090A1840090213401B0408431843AB
:103D800004B070471FB5C943030C82B2C9B2DBB29D
:103D90004B43FF241100180A120A2140204012024E
:103DA0000A430004104304B010BD00001FB5104BBF
:103DB0001C314900C95C01908B1A5BB201ACC0B2E6
:103DC000002B01DA521A53B21822DBB253431B12F2
:103DD000C31823702288FF231000A178120A18400C
:103DE00012020B401B041043184304B010BDC04620
:103DF000E0FA00107FB5164E1C335D0073195B7836
:103E0000AD5D203B5A432B00703B5BB2019001AC8F
:103E1000C0B2002B02DA70235B1B5BB23825EB1AB1
:103E20005943032389187F225943CB1713405B184A
:103E3000DB11C31823702288FF231000A178120A17
:103E4000184012020B401B041043184304B070BD0D
:103E5000E0FA00107FB5114E1C335B000190051C89
:103E6000F018407801AC20384243985DFF23703849
:103E700048433F211218D01708408018801140197C
:103E800020702288A1781000120A184012020B40FC
:103E90001B041043184304B070BDC046E0FA001084
:103EA0007FB5114E1C335B000190051CF018407863
:103EB00001AC20384243985DFF23703848437F218E
:103EC0001218D01708408018C0114019207022889D
:103ED000A1781000120A184012020B401B04104374
:103EE000184304B070BDC046E0FA001084B004AAC4
:103EF0000190107803225A43521001A982180A70C7
:103F00000A88FF2310008978120A184012020B4019
:103F10001B041043184304B070470000F0B51C3177
:103F2000114F4B00FB180D00597885B00B00203B5A
:103F30005BB2019001ACC0B2002B02DA2026761AE7
:103F400073B26D00795D891ACB18C318237022886B
:103F5000FF231000A178120A184012020B401B0424
:103F60001043184305B0F0BDE0FA001084B0019092
:103F70001C310A4849004118497801AB891A197067
:103F80001A8899781000FF23120A184012020B4079
:103F90001B041043184304B07047C046E0FA0010F9
:103FA00084B001901C3109484900095C01AB891AB1
:103FB00019701A8899781000FF23120A184012020B
:103FC0000B401B041043184304B07047E0FA001084
:103FD00084B001AB01901A701A8899781000FF2301
:103FE000120A184012020B401B041043184304B07D
:103FF00070470000030C84B001901C31D8B2104B04
:104000004900C95CE4234B431B121C339A1AD31793
:10401000D2185A40D200821A131C120400D5002371
:104020001BB2584301AB1B88FF211A0000121B0A68
:104030000A4008401B0213430004184304B07047B1
:10404000E0FA00101FB5030A01901C31D8B2114BE1
:104050004900C95CE4234B431B121C339A1AD31743
:10406000D2185A40D200821A01AC131C120400D597
:1040700000231BB25843001260702288FF231000F7
:10408000A178120A184012020B401B041043184377
:1040900004B010BDE0FA001010B5FFF787FC10BDAA
:1040A000F8B505000E001700002420003B00320088
:1040B00029000134FFF7F0FF2E2CF6D1F8BD0000E7
:1040C00010B5064B1B791033191CFF2B00D9FF21AB
:1040D00089B2090902480AF0CBFD10BD981E0020E4
:1040E000B80B000010B5041E02D1C80FC00110BDEE
:1040F000C217831853401BB2CA1800290DDBC81A17
:10410000400111000AF0B4FD2021081A40B2C0B2EB
:10411000002CECDA4042C0B2E9E7591A50010AF02B
:10412000A7FD6021F1E730B585B0019008A80478BB
:1041300010001C1BFFF7D6FFE4B201AD241A2C704F
:104140002A88FF231000A978120A184012020B4097
:104150001B041043184305B030BD30B585B0019045
:1041600010001D00FFF7BEFF01AC4019207022882F
:10417000FF231000A178120A184012020B401B0402
:104180001043184305B030BD7FB5061C040C08A8C9
:10419000057810005D1BFFF7A5FFE4B26519EDB2CD
:1041A000281AB3B2C0B260431A00FF241B0A000AE7
:1041B000224020401B0213430004184304B070BD8A
:1041C0007FB5060A019008A80078F6B21C1A100004
:1041D000FFF788FF3419E4B2241AE4B2744301AD46
:1041E00024126C702A88FF231000A978120A184044
:1041F00012020B401B041043184304B070BD7FB57E
:10420000040C061CE4B21000E51AFFF76BFF8300F4
:10421000EDB2C01A2818B2B2C0B260431300FF2436
:10422000120A000A2340204012021A4300041043DD
:1042300004B070BD7FB5040A0190E4B21000E51A25
:10424000FFF750FF8300C01AEDB22D18EDB26C439A
:1042500001AE241274703288FF231000B178120A64
:10426000184012020B401B041043184304B070BDE9
:10427000402110B501400200002901D0C243D2B252
:104280000F234C1EA141134092065B18920F084960
:1042900052008A18517812784B431B119B1840B278
:1042A000DBB2002801DA5B42DBB2803BD8B210BD42
:1042B000B8F400107FB50E000190C4B21000FFF7F3
:1042C000D7FF1C36114B7600F35C01ADC018C0B2AD
:1042D0000300803B5BB2002B03DA80235B421B1A96
:1042E0005BB20C225B00DBB253431B12E3182B7052
:1042F0002A88FF231000A978120A184012020B40E6
:104300001B041043184304B070BDC046E0FA00100F
:10431000054B06481A885043054A801880B2188019
:10432000030A1818C0B27047D20B0020050800001D
:104330001936000030B5012801D8C0B230BDF723CE
:10434000FF225B01984202D842090832D2B2012111
:104350008B185B101D005D43ADB2DCB2854206D9FF
:10436000013CE2B29142F3D90139C8B2E6E7FF2B32
:1043700002D00134E1B2F5E71800DFE71FB51C00F9
:104380004BB20190002B01DA49424BB23820C01ADF
:1043900080B292B252434043801880B2FFF7CAFF06
:1043A0000322424301ABA4181C701A8899781000AC
:1043B000FF23120A184012020B401B04104318433B
:1043C00004B010BD054B2D225B78002B01D00023DB
:1043D000162282425B41D8B27047C046371F002088
:1043E000F0B50500061C2D0A000C294BC0B2EDB239
:1043F00085B0F6B21C5C002D47D00620FF2170432B
:104400000AF036FC5522524242437600B618032287
:104410007243FF21D2B217008A1A6F436A433F12D8
:1044200012124B1BCF1B8A1A6343674362431B1252
:104430003F121212DBB2FFB2D2B2062822D8FCF72A
:10444000D3FC060412171C21060022003C002000A9
:104450001400FF2210401440134000021B042043AC
:10446000184305B0F0BD110022001C000B00EEE760
:1044700022001C0013003A00E9E711001A00230093
:104480000C00E4E71A003B00E1E723002000E0E72E
:10449000B4EF0010F0B5494B8FB005901878099132
:1044A000FFF74AFB03041B0E0493454BC6B21B786F
:1044B0000AAA0693330010801C33424A5B009B1803
:1044C000049A0393F3B29A4204D81000FFF77AFFDC
:1044D0000FB0F0BD3C4B394A9B5D52781A422BD04D
:1044E0003A49032201310BA8FCF7C8FC059B344D67
:1044F0000293ED1800231C006B46069A1B7A9A4221
:104500001ED8324B0BAAD8780CAB444324129470BB
:1045100012889C701A800C98FFF762FF0104030256
:104520000DAA090E1B0E107051709370C9B2C2B261
:10453000DBB23000FFF7B0FD039B01360233BFE76B
:10454000039B6A7A18786B78C01A80B203B207931B
:10455000039B40435B789B1A9BB21AB25B43C01823
:1045600080B20892FFF7E6FE029A15490C3252001B
:1045700089188A7803004878802112021043134A70
:104580004900127901328A4200D1FF2242430BAF27
:104590001212BC7092B200920799089A0B98099C6B
:1045A000A04703041B0E7B70029B38700002000EB4
:1045B00001330293B8700135C3B29CE7D40B0020DD
:1045C00024170020E0FA001074FB0010981E002051
:1045D000F0B5374E87B001903078FFF7ADFA02ABF7
:1045E0001880344B05041B79C4B22D0E591CFF2BC7
:1045F00000D1FF2130480AF03BFB87B2E1B28D4287
:1046000004D82800FFF7DEFE07B0F0BD2B4B727810
:104610001B5D1A4239D02A4A94461378013B5BB29B
:104620001A0634D538008022224B52001979013104
:10463000914200D1FF215A1C414350785B7800021F
:10464000034390780912000489B21843019B9847EC
:1046500003AB02041870120E00025A70000E98701C
:104660001B8804AA138090700498FFF7B9FE010418
:10467000030205AA090E1B0E107051709370C9B287
:10468000C2B2DBB22000FFF707FD0134B6E7624695
:10469000D218527C8A4209D11A000C32520062446C
:1046A00050789278120210438742BCD8013BB7E79A
:1046B000D40B0020981E0020FFFF000074FB0010A8
:1046C00024170020F0B5224E87B007003078FFF79E
:1046D00033FA204B05041B792D0E9B08591C1E4BE9
:1046E000C4B21B689BB24B431B12DBB20193E1B215
:1046F0008D4204D82800FFF765FE07B0F0BD174BC8
:1047000072781B5D1A4220D0124B5A1C50785B788D
:10471000000203439078019A00041843B84702044A
:1047200003AB120E18705A701B88000204AA000E08
:10473000138090700498FFF753FE01040302C2B285
:10474000090E1B0E2000FFF7A7FC0134CFE7C0467F
:10475000D40B0020981E00208817002074FB001046
:10476000F0B5294B89B007001878FFF7E5F9274A1B
:10477000274B14791B68A4089BB25C432412E4B253
:104780000604C5B220004030C0B2FFF771FD80388A
:1047900043B220000293FFF76BFD803843B2360E20
:1047A0000393EBB29E4204D83000FFF70BFE09B032
:1047B000F0BD184A1449525D4978114222D0134A7B
:1047C0000094511C4878527800020243887802997C
:1047D00000041043039AB847020405AB120E187088
:1047E0005A701B88000206AA000E1380907006986B
:1047F000FFF7F6FD01040302C2B2090E1B0E2800EA
:10480000FFF74AFC0135CCE7D40B0020981E0020AE
:104810008817002074FB0010F0B5344B8BB0059066
:104820001878FFF789F9C4B2270003041B0E03931D
:104830002F4B06AA10801A682E4B92B21B791C3798
:104840005B0853431B12DBB204932B4B7F00FF1812
:10485000039AE3B29A4204D81000FFF7B3FD0BB0FD
:10486000F0BD264B214A1B5D52781A423AD03D7862
:104870007E78703D203EB6B2ADB23300280073435F
:104880006843C01880B2FFF755FD29B20300049DAC
:10489000184832B20095461C757840782D0228439E
:1048A000B5782D042843059DA84707AB020418706E
:1048B000120E00025A70000E98701B8808AA13800E
:1048C00090700898FFF78CFD0104030209AA090EF5
:1048D0001B0E107051709370C9B2C2B2DBB22000CF
:1048E000FFF7DAFB02370134B2E7C046D40B0020F1
:1048F00088170020981E0020E0FA001074FB0010BA
:10490000F0B52D4B87B007001878FFF715F9C4B242
:10491000250002AB1880294B1C351A68284B92B22F
:104920001B7906045B0853431B12DBB20193254B32
:104930006D00360EED18E3B29E4204D83000FFF74A
:1049400041FD07B0F0BD204B1B4A1B5D52781A4257
:104950002FD01B4B6A78581C844640785B78000245
:104960000343604629788078203A7039000409B200
:1049700012B21843019BB84703AB02041870120E21
:1049800000025A70000E98701B8804AA1380907061
:104990000498FFF725FD0104030205AA090E1B0E6A
:1049A000107051709370C9B2C2B2DBB22000FFF731
:1049B00073FB02350134BEE7D40B002088170020BA
:1049C000981E0020E0FA001074FB001037B50400B8
:1049D000FFF79EFC0500FFF79BFC6A46094BC001F0
:1049E000DB7800127F301570937050700098FFF7DD
:1049F000F7FC01040302C2B2090E1B0E2000FFF7F0
:104A00004BFB37BD981E0020F0B5154B85B0DA780A
:104A10009F7801925C780600FFF77AFCB4210500CC
:104A200020004900B4300AF02BF903230A1BD117E8
:104A30001940891889101D404D43019A02AB651930
:104A40001D705F709A700298FFF7CAFC01040302A0
:104A5000C2B2090E1B0E3000FFF71EFB05B0F0BD01
:104A6000981E002010B55200054C1218091A035B5D
:104A7000DB430B5202309042F9D1012010BDC046F9
:104A800000E01F1010B5EFF3108372B6044C2360E2
:104A90000AF0E6F8236883F31088012010BDC046B1
:104AA00094170020044A054B0220D15C002902D053
:104AB00000210138D15470478026002004100000E6
:104AC000044A054B0220D15C002901D10138D054A1
:104AD0007047C0468026002004100000F0B58FB05B
:104AE000FFF7EEFF0B90EFF3108372B68022FF20EA
:104AF000324E334F1201310040033B600AF0F0F8B0
:104B00003B6883F3108880200021B4462D4A2E4B49
:104B100040016646775C1D0057403B020993002325
:104B20003C0008933A002B0012196B413F0F2E01F5
:104B30003E43019626010096009E019F92197B41FB
:104B400012196B41E70E6E013E4303966601029611
:104B5000029E039F92197B41670EEE013E4305962C
:104B6000E6010496049E059F92197B41270E2E02B2
:104B70003E43079626020696069E079F92197B41A2
:104B8000089E099F013192197B418142C1D10C924B
:104B90000D93EFF3108372B6094C04220CA90B4855
:104BA00023600AF09DF8236883F310880B9B012B88
:104BB00001D1FFF777FF02200FB0F0BD8026002063
:104BC0009417002025232284E49CF2CB00F01F00E0
:104BD00070B58024084D6401084B2A5901209A427F
:104BE00009D9FFF74FFF03000020834203D0FFF7EE
:104BF00075FF034B2B5170BD80260020FF1F000066
:104C00000810000073B580246A460C4D6401911DA4
:104C10002B590880EFF3108272B6094E3260FF22E2
:104C20005203981801220AF05BF8336883F3108866
:104C30002B5902332B51FFF7CBFF76BD8026002086
:104C400094170020F0B58D0085B04519009050698B
:104C50000C001600EA60002803D020220021FDF796
:104C600019FDB069002803D01C220021FDF712FDB8
:104C7000EF687E69BD69002C0ED1402380213F4A38
:104C8000B383B26134756A612B833D4A3D4B89051C
:104C9000AC74D15005B0F0BD002E37D03A4AE300D5
:104CA0009A180392394A9B180022DA6732753B68DA
:104CB0000193012B5ED1388AFEF79EF880220223F1
:104CC0009200904208D080220133D200904203D05B
:104CD000431EFF3B5A425341DB060293009AE232E5
:104CE00094466346118842008A181A80284BB08384
:104CF000CA18019B8131B261FF319A060A438021B3
:104D000009060A430399029B04C1CB67002DC1D059
:104D10001D4BE400E6181F4B4020E4180023E36716
:104D2000AB743C68012C11D1388AFEF765F88022FB
:104D300002239200904208D080220133D200904298
:104D400003D0431EFF3B5A425341DB06009AA406A0
:104D5000E23211880F1817800D4A28838A186A6179
:104D600080228131FF310C431206144374600836EF
:104D7000F3678FE702924020B0E7C0460001105071
:104D8000000011504C200000000010500400105092
:104D9000800110500800105070B5052900D97FE03F
:104DA0000800FCF721F8517D0351517EFEF759F8B8
:104DB000444C454A230078331978606FFFF742FF6F
:104DC00020000025FEF76FF923002572FF33597B81
:104DD0002300FC33D8683D4AFFF734FF3C48FEF718
:104DE00062F923009C331D70D0235B00E15C043B1F
:104DF000E058384AFFF726FF3748FEF754F9982362
:104E00005B00E554354C364A230074331978206F23
:104E1000FFF718FF636A200063612361E560A56204
:104E2000E562FEF731F920002572FEF7D0FAFEF7B1
:104E30000FF82C4B1B78AB4202D00520FEF72AFC62
:104E40000220FEF727FC2BE000250126FEF722FCBE
:104E5000FEF707F81B4C20002672FEF715F920001C
:104E6000FEF721F9230090331B68002B02D0DA688B
:104E70001868904701359434032DECD10123174C69
:104E800023722000FEF700F90023626AE36062618A
:104E90002261A362E3622000FEF7F6F8FDF7D8FF77
:104EA00070BDFDF7DEFF074A002311009C310B7037
:104EB0009821490013725354084A1372FDF7C8FF32
:104EC0000520BEE7DC0B0020140C0020A80C0020FD
:104ED000700C00203C0D0020040D0020980D0020D7
:104EE000D00D0020091B002070B5050004002435FA
:104EF0002368002B09D018009A6C08300021FDF7B8
:104F0000C9FB002223681A605A600434AC42EFD116
:104F100070BD036810B50400002B09D018009A6C0E
:104F200008300021FDF7B6FB002223681A605A60A2
:104F300010BD000070B58024044D640128002200DB
:104F40000021FDF7A7FB024B2B5170BD80260020EE
:104F500008100000F7B50231890041184B681700AE
:104F60005C691B8A216822698D1A9D4200D91D0047
:104F70000023180052198A4258412261820300928C
:104F8000217DAEB20800421E9041420301920122EF
:104F90004A402275A0699F4200D0A38BC0182A0006
:104FA000A168FBF76BFF8420A36800025D19009BDA
:104FB00030431843019BA56003431800002F00D025
:104FC0001804FEBD8B1C9B00C3185B68F7B5060078
:104FD0000C1E5F6924D11A4BDB6C002221003000CB
:104FE0000193FFF7B7FF3A683B6905009A4205D085
:104FF000012221003000FFF7ADFF05436B0113D5FF
:10500000104A019B13401A00A023DB051343002C18
:1050100011D10B4AD3640C4B1034E4001D51F7BD81
:10502000094ACB00D358D8E7084A019B13401A001D
:1050300080239B05EAE70449E2008B50EBE7C0467A
:1050400000001150FFFFFFDF00001050FFFFFFAF17
:1050500070B501258D4004892C4304818C1CA4006B
:1050600004196468646923600023A2606360E360DC
:105070002361FFF7A7FF70BD70B50600C436337813
:105080000400152B18D80122110099400B001E496D
:105090000B4220D180256D031D400ED19B020BD504
:1050A0000B233370FDF7DDFE2B002A0029002000C2
:1050B000FFF7CEFFFDF7CCFE70BDC3689B695B6850
:1050C000002BF9D10300D0331B68002B00D0984788
:1050D00000233370F0E780230C490D480D4D4250FA
:1050E000EA6F1B011A43EA67022242500A4AD16F53
:1050F0000B43D36763681B68002B02D00621200096
:1051000098470623E5E7C046410E000068200000EE
:1051100000001150040010500800105070B5050038
:10512000C43504002878152835D8FBF75DFE3E34D9
:10513000343434343E34340B283534343434343459
:1051400034343E3E2300CC33DA7B18680E331B78B0
:1051500012021343984212D2E368198A09F0A8FD9B
:105160000E1E0CD1FDF77DFE330032003100200011
:10517000FFF76EFFFDF76CFE0A232B700BE0142384
:105180002B70FDF76EFE002320001A001900FDF7BA
:10519000B9FEFDF75DFE70BD2300D0331B68002B08
:1051A00001D0200098470023E7E701230B490C4872
:1051B0000C4E43508023F26F1B011A43F267022208
:1051C0004250094AD16F0B43D36763681B68002BB9
:1051D00002D00621200098470623CEE76820000071
:1051E0000000115004001050080010500B00113343
:1051F0009B00C318F7B55C6805000E00002C57D063
:10520000FDF72FFE230000228C331A702369626998
:10521000934202D1E368002B2CD1B31C9B00EB1806
:105220005B685B691B68002B24D0270090373B68C4
:10523000002B09D001A92000FDF7B3FE3B68010057
:105240009F68019A1868B847E368E2690133E36030
:1052500063699B18A2696361934201D3636A6361C6
:105260002068A04206D0036823605C60002383614D
:10527000FDF7F4FE01A92000FDF793FE019B021E3D
:1052800010D1B31C9B00EB185A681368022B0DD188
:1052900053691B68002B09D0128A013A134005D1CB
:1052A0002A00D43231002800FFF7D2FEFDF7D0FDEE
:1052B000F7BD37B5446B626F1378042B12D125000C
:1052C00078352978033B8B4012891A420AD101A90B
:1052D0002000FDF766FE021E04D02978019B606F56
:1052E000FFF7B6FE37BD10B5130008290AD88900AC
:1052F0000958002906D08A6C08331A64083118004E
:10530000FBF7BCFD10BD00000B7810B5082B0AD8C8
:105310009B001858002806D0034B9B6A82644360A8
:105320000830FBF7ABFD10BD00400540016810B52B
:105330001300002906D08A6C08331A64083118005B
:10534000FBF79CFD10BD0000006810B5002806D0DA
:10535000034B9B6A826443600830FBF78FFD10BDEE
:105360000040054013B50800032A25D90623144A36
:1053700011785278CC070B40E40F234308240C40EB
:10538000234310240C40234320240C402343402477
:105390000C40C909C90123430B43D107C90F920728
:1053A0000902D20F0B435202134301A904220193B5
:1053B000FBF764FD002016BD01204042FBE7C0461C
:1053C000CE1A002010B543880C00934206D84168DD
:1053D0001A002000FBF752FD002010BD01204042C2
:1053E000FBE700001349144B10B5144ACB60144C72
:1053F00000234020946154638024108790831375A8
:10540000323213700F48104AA40514501360012261
:10541000E2310B800D49D0000D4C4018D1000C1921
:105420008360E367C3600B4801320918CB670F2A1A
:10543000F0D110BDD00F002084F500104C160020D4
:10544000000110504C20000000001150F8FF0F50D8
:105450000400105008001050F8B5050001200A2D76
:1054600002D00D2D03D1002000F052F8F8BD062621
:10547000204F32003C6820482100FBF7FFFCDF2D65
:1054800030D9320000212000FDF704F92100062266
:105490001948FDF7BBFA194D631B9CB200280CD0CC
:1054A000012123000E006209053396405B099940F3
:1054B00013480288324311430180124B06341E7890
:1054C000A4B23100200009F0DBFB761AF6B2052EFB
:1054D00001D8A419A4B20C4B9C4200D900242C1969
:1054E0003C60C3E775430949320069182000FBF7A7
:1054F000C5FCCBE7E01D0020EA1D0020DD1B0020DD
:10550000E41D0020E81D0020FF010000A0F50010B0
:10551000F7B5154E154A336807009C1A144BA5B20F
:105520001B7828001900019309F0AAFB019B581A67
:10553000C0B2002F0CD0062109F0AAFBC4B2013C76
:10554000E4B2FF2C00D1F7BD2020FFF785FFF6E77E
:10555000084B4519A4B29D4201DD38003C00034BC5
:10556000201818183060EEE7E01D0020DD1B002039
:10557000E81D0020FF0100008023F0B5160089B06F
:105580008218050001915B019A4203D90024200092
:1055900009B0F0BD5D4F3200C71939000198FDF721
:1055A00035FA01240028F2D0320001993800FBF7C7
:1055B00065FCFFF785FA0590002802D1FFF772FA23
:1055C000E4E7019B1A78012E33D9EB0731D4504B15
:1055D0009D422ED8019B5B781B021343012B28D8D8
:1055E0005A1E934120225B421340803B6A0A1343B8
:1055F000FF220499DBB291430A001A4304920499F2
:105600006B08444ADBB21B020A401A436B46049201
:10561000188AFFF7F7FA0400012867D1019B023EC0
:10562000023502330193002ECBD1FFF7D1FA0400EB
:1056300061E03F2D18D8FF210398402388430100E3
:105640002B43DBB21943334B12020B40134303933A
:105650006B469889FFF7D6FA0400012846D1019BD2
:10566000013E01350133DDE70296052E01D9052300
:10567000029306AF06220021B81CFDF70BF80722A3
:105680002B0C1340029ABD70D20013433B702B0ABF
:105690007B7000230199DA19C95C0133D170029A39
:1056A0009A42F7D13888FFF7ADFA040001281DD1DE
:1056B0007888FFF7A7FA0400012817D1012E07D92F
:1056C000B888FFF79FFA040001280FD1032E07D8EE
:1056D000029A029B9446F61AED18019B6344A1E7D7
:1056E000F888FFF78FFA04000128F1D0002C02D0CF
:1056F000022C00D00024059B012B00D047E7FFF7C8
:10570000D1F9002800D141E741E7C04680260020BA
:10571000FF3F0000FF00FFFF70B50400FDF79EF99A
:105720002518A54200D870BD2078FFF795FE0134FA
:10573000F7E710B5FFF7F0FF0120FFF7E9FE10BD16
:10574000D0231B061A68084B92009B185B6810B5A3
:10575000D9680875186802681A60536001220275DA
:10576000D860FAF7B3FD10BD44150020D022120610
:105770001368F0B53B4F9B00FB185B688BB0DB6890
:10578000039002934B1C69D0136804AC9B00FB1878
:105790005B68354D1A0010320192029A019E226117
:1057A000324A1869E26000226261AA6A864222D106
:1057B0000B0030002100FDF783FC0398FFF7C0FFCA
:1057C000049B002B13D0D02109060A689200BA1856
:1057D00052681069A04220D061680B60596004993A
:1057E000A3688868C3188B6001235B429361029BA6
:1057F00098690BB0F0BDDB69D31ACE18B34200D95B
:105800000E008368B34202D91000FDF795FC320008
:1058100021000198FDF7B6FCCFE7100000261030FC
:1058200013612660586083420AD10B68AA6B9B0003
:10583000FB185B68996A01238B409A43AA63D6E7F9
:105840009868A16841189960A86AD369C21A914200
:10585000CDD9C918091AFDF76FFCC8E70398FFF7FF
:105860006FFFC4E7441500200040054019300010C8
:10587000D0231B061A680A4B92009B185B6810B570
:10588000DB68002908D0426818605A6013604360E2
:105890000420FFF76BFF10BD01204042FBE7C0462C
:1058A0004415002010B50A0064230100782009F097
:1058B00051F943425841C0B210BD00000B4A10B527
:1058C00012780B4C2378002A02D10120584008E0BE
:1058D000002B09D002210748FFF7E4FF002801D17F
:1058E000207810BD002323702378EEE7E61D00200A
:1058F000DC1B002016F5001010B5002904D002238F
:10590000064A11780B431370054B064AC3189BB225
:10591000934200D8C0B206F0DFFD10BD7E26002005
:1059200000E0FFFFFF2F0000F7B507270D4A0E4BE1
:1059300012781B7801920D4A019CA34202D10024E7
:105940002000FEBD0A255D43541966788E4205D1BC
:10595000AD5C854202D16479002CF1D101333B402A
:10596000EAE7C0467C2600207D2600202C26002069
:1059700003000320F0B50D4A9478D678651C0540E5
:105980000020AE4210D07F273B4018001419237925
:10599000CE01BB4303433B40190001203143217139
:1059A0001378957001331370F0BDC046391600208E
:1059B000064B8000C0180368090159403023194084
:1059C00080235B01184301607047C04604C001405A
:1059D00070B501258D400468AC43046018244C4325
:1059E00004192500C835002B28D01E682E605E687B
:1059F0006E609E68DB68AE60DC34236018234B4326
:105A00001D008024D035451964012C4380252D06C6
:105A10002560256001250E4C2E008C4084600C1DF5
:105A2000A640802408318D401F21A4010443C018E2
:105A30000A40D83026602560026070BD802676025C
:105A40002E60F82676026E60C0263603AE60D3E77D
:105A500001010101F0B585B001910AA90E78182164
:105A6000019C4C4305192F00DC373968CC34029176
:105A7000CC218C46AC446146096804190391C021CD
:105A800089010C43802189022160711E8E411821F9
:105A90001F248C4676423440114E34435601052B68
:105AA00012D861469B061E43019B594340180300D0
:105AB0000200DC33D8321E601460029ACC301A60C7
:105AC000039B036005B0F0BDA02149053143396057
:105AD0002900D8310C601F210532053B0A40DDE763
